{"abi":[{"type":"constructor","inputs":[],"stateMutability":"nonpayable"},{"type":"function","name":"owner","inputs":[],"outputs":[{"name":"","type":"address","internalType":"address"}],"stateMutability":"view"},{"type":"function","name":"resolveEscrow","inputs":[{"name":"escrowContract","type":"address","internalType":"address"},{"name":"buyerWins","type":"bool","internalType":"bool"}],"outputs":[],"stateMutability":"nonpayable"}],"bytecode":{"object":"0x6080604052348015600e575f5ffd5b50335f5f6101000a81548173ffffffffffffffffffffffffffffffffffffffff021916908373ffffffffffffffffffffffffffffffffffffffff16021790555061049f8061005b5f395ff3fe608060405234801561000f575f5ffd5b5060043610610034575f3560e01c80638da5cb5b14610038578063fea4dbaa14610056575b5f5ffd5b610040610072565b60405161004d919061025b565b60405180910390f35b610070600480360381019061006b91906102d7565b610096565b005b5f5f9054906101000a900473ffffffffffffffffffffffffffffffffffffffff1681565b5f5f9054906101000a900473ffffffffffffffffffffffffffffffffffffffff1673ffffffffffffffffffffffffffffffffffffffff163373ffffffffffffffffffffffffffffffffffffffff1614610124576040517f08c379a000000000000000000000000000000000000000000000000000000000815260040161011b90610395565b60405180910390fd5b5f5f9054906101000a900473ffffffffffffffffffffffffffffffffffffffff1673ffffffffffffffffffffffffffffffffffffffff163373ffffffffffffffffffffffffffffffffffffffff16146101b2576040517f08c379a00000000000000000000000000000000000000000000000000000000081526004016101a990610423565b60405180910390fd5b8173ffffffffffffffffffffffffffffffffffffffff166389e1e82a826040518263ffffffff1660e01b81526004016101eb9190610450565b5f604051808303815f87803b158015610202575f5ffd5b505af1158015610214573d5f5f3e3d5ffd5b505050505050565b5f73ffffffffffffffffffffffffffffffffffffffff82169050919050565b5f6102458261021c565b9050919050565b6102558161023b565b82525050565b5f60208201905061026e5f83018461024c565b92915050565b5f5ffd5b6102818161023b565b811461028b575f5ffd5b50565b5f8135905061029c81610278565b92915050565b5f8115159050919050565b6102b6816102a2565b81146102c0575f5ffd5b50565b5f813590506102d1816102ad565b92915050565b5f5f604083850312156102ed576102ec610274565b5b5f6102fa8582860161028e565b925050602061030b858286016102c3565b9150509250929050565b5f82825260208201905092915050565b7f4f6e6c79207468652061726269747261746f722063616e2063616c6c207468695f8201527f732066756e6374696f6e00000000000000000000000000000000000000000000602082015250565b5f61037f602a83610315565b915061038a82610325565b604082019050919050565b5f6020820190508181035f8301526103ac81610373565b9050919050565b7f4f6e6c792061726269747261746f722063616e207265736f6c766520646973705f8201527f7574657300000000000000000000000000000000000000000000000000000000602082015250565b5f61040d602483610315565b9150610418826103b3565b604082019050919050565b5f6020820190508181035f83015261043a81610401565b9050919050565b61044a816102a2565b82525050565b5f6020820190506104635f830184610441565b9291505056fea2646970667358221220686060b5ee44b002013c6780d2c5fe54f265d622c1cead9c8d13247ac79d565064736f6c63430008210033","linkReferences":{}},"methodIdentifiers":{"owner()":"8da5cb5b","resolveEscrow(address,bool)":"fea4dbaa"},"id":21}