{"abi":[{"type":"constructor","inputs":[{"name":"_arbitrator","type":"address","internalType":"address"}],"stateMutability":"nonpayable"},{"type":"function","name":"arbitrator","inputs":[],"outputs":[{"name":"","type":"address","internalType":"address"}],"stateMutability":"view"},{"type":"function","name":"createEscrow","inputs":[{"name":"_buyer","type":"address","internalType":"address"},{"name":"_seller","type":"address","internalType":"address"},{"name":"_amount","type":"uint256","internalType":"uint256"},{"name":"_deadline","type":"uint256","internalType":"uint256"}],"outputs":[{"name":"escrowAddress","type":"address","internalType":"address"}],"stateMutability":"nonpayable"},{"type":"function","name":"escrows","inputs":[{"name":"","type":"uint256","internalType":"uint256"}],"outputs":[{"name":"","type":"address","internalType":"contract Escrow"}],"stateMutability":"view"},{"type":"function","name":"escrowsLength","inputs":[],"outputs":[{"name":"","type":"uint256","internalType":"uint256"}],"stateMutability":"view"},{"type":"event","name":"EscrowCreated","inputs":[{"name":"buyer","type":"address","indexed":true,"internalType":"address"},{"name":"seller","type":"address","indexed":true,"internalType":"address"},{"name":"amount","type":"uint256","indexed":false,"internalType":"uint256"},{"name":"deadline","type":"uint256","indexed":false,"internalType":"uint256"},{"name":"escrowContract","type":"address","indexed":false,"internalType":"address"}],"anonymous":false}],"bytecode":{"object":"0x60a060405234801561000f575f5ffd5b5060405161286b38038061286b83398181016040528101906100319190610137565b5f73ffffffffffffffffffffffffffffffffffffffff168173ffffffffffffffffffffffffffffffffffffffff160361009f576040517f08c379a0000000000000000000000000000000000000000000000000000000008152600401610096906101bc565b60405180910390fd5b8073ffffffffffffffffffffffffffffffffffffffff1660808173ffffffffffffffffffffffffffffffffffffffff1681525050506101da565b5f5ffd5b5f73ffffffffffffffffffffffffffffffffffffffff82169050919050565b5f610106826100dd565b9050919050565b610116816100fc565b8114610120575f5ffd5b50565b5f815190506101318161010d565b92915050565b5f6020828403121561014c5761014b6100d9565b5b5f61015984828501610123565b91505092915050565b5f82825260208201905092915050565b7f496e76616c69642061726269747261746f7200000000000000000000000000005f82015250565b5f6101a6601283610162565b91506101b182610172565b602082019050919050565b5f6020820190508181035f8301526101d38161019a565b9050919050565b6080516126726101f95f395f8181610126015261031c01526126725ff3fe608060405234801561000f575f5ffd5b506004361061004a575f3560e01c8063012f52ee1461004e5780636cc6cde11461007e578063ccbae5f61461009c578063ea7c32d5146100cc575b5f5ffd5b610068600480360381019061006391906104a1565b6100ea565b6040516100759190610546565b60405180910390f35b610086610124565b604051610093919061057f565b60405180910390f35b6100b660048036038101906100b191906105c2565b610148565b6040516100c3919061057f565b60405180910390f35b6100d4610452565b6040516100e19190610635565b60405180910390f35b5f81815481106100f8575f80fd5b905f5260205f20015f915054906101000a900473ffffffffffffffffffffffffffffffffffffffff1681565b7f000000000000000000000000000000000000000000000000000000000000000081565b5f5f73ffffffffffffffffffffffffffffffffffffffff168573ffffffffffffffffffffffffffffffffffffffff16036101b7576040517f08c379a00000000000000000000000000000000000000000000000000000000081526004016101ae906106a8565b60405180910390fd5b5f73ffffffffffffffffffffffffffffffffffffffff168473ffffffffffffffffffffffffffffffffffffffff1603610225576040517f08c379a000000000000000000000000000000000000000000000000000000000815260040161021c90610710565b60405180910390fd5b8373ffffffffffffffffffffffffffffffffffffffff168573ffffffffffffffffffffffffffffffffffffffff1603610293576040517f08c379a000000000000000000000000000000000000000000000000000000000815260040161028a90610778565b60405180910390fd5b5f83116102d5576040517f08c379a00000000000000000000000000000000000000000000000000000000081526004016102cc906107e0565b60405180910390fd5b5f8211610317576040517f08c379a000000000000000000000000000000000000000000000000000000000815260040161030e90610848565b60405180910390fd5b5f85857f000000000000000000000000000000000000000000000000000000000000000086866040516103499061045d565b610357959493929190610866565b604051809103905ff080158015610370573d5f5f3e3d5ffd5b5090505f81908060018154018082558091505060019003905f5260205f20015f9091909190916101000a81548173ffffffffffffffffffffffffffffffffffffffff021916908373ffffffffffffffffffffffffffffffffffffffff1602179055508091508473ffffffffffffffffffffffffffffffffffffffff168673ffffffffffffffffffffffffffffffffffffffff167f81817580558fff8c32fc3b8b3371e585c252705a3de7a49cbdf0d377d40cb82b86864261043191906108e4565b8560405161044193929190610917565b60405180910390a350949350505050565b5f5f80549050905090565b611cf08061094d83390190565b5f5ffd5b5f819050919050565b6104808161046e565b811461048a575f5ffd5b50565b5f8135905061049b81610477565b92915050565b5f602082840312156104b6576104b561046a565b5b5f6104c38482850161048d565b91505092915050565b5f73ffffffffffffffffffffffffffffffffffffffff82169050919050565b5f819050919050565b5f61050e610509610504846104cc565b6104eb565b6104cc565b9050919050565b5f61051f826104f4565b9050919050565b5f61053082610515565b9050919050565b61054081610526565b82525050565b5f6020820190506105595f830184610537565b92915050565b5f610569826104cc565b9050919050565b6105798161055f565b82525050565b5f6020820190506105925f830184610570565b92915050565b6105a18161055f565b81146105ab575f5ffd5b50565b5f813590506105bc81610598565b92915050565b5f5f5f5f608085870312156105da576105d961046a565b5b5f6105e7878288016105ae565b94505060206105f8878288016105ae565b93505060406106098782880161048d565b925050606061061a8782880161048d565b91505092959194509250565b61062f8161046e565b82525050565b5f6020820190506106485f830184610626565b92915050565b5f82825260208201905092915050565b7f496e76616c6964206275796572000000000000000000000000000000000000005f82015250565b5f610692600d8361064e565b915061069d8261065e565b602082019050919050565b5f6020820190508181035f8301526106bf81610686565b9050919050565b7f496e76616c69642073656c6c65720000000000000000000000000000000000005f82015250565b5f6106fa600e8361064e565b9150610705826106c6565b602082019050919050565b5f6020820190508181035f830152610727816106ee565b9050919050565b7f4275796572203d3d2053656c6c657200000000000000000000000000000000005f82015250565b5f610762600f8361064e565b915061076d8261072e565b602082019050919050565b5f6020820190508181035f83015261078f81610756565b9050919050565b7f416d6f756e74203d2030000000000000000000000000000000000000000000005f82015250565b5f6107ca600a8361064e565b91506107d582610796565b602082019050919050565b5f6020820190508181035f8301526107f7816107be565b9050919050565b7f496e76616c696420646561646c696e65000000000000000000000000000000005f82015250565b5f61083260108361064e565b915061083d826107fe565b602082019050919050565b5f6020820190508181035f83015261085f81610826565b9050919050565b5f60a0820190506108795f830188610570565b6108866020830187610570565b6108936040830186610570565b6108a06060830185610626565b6108ad6080830184610626565b9695505050505050565b7f4e487b71000000000000000000000000000000000000000000000000000000005f52601160045260245ffd5b5f6108ee8261046e565b91506108f98361046e565b9250828201905080821115610911576109106108b7565b5b92915050565b5f60608201905061092a5f830186610626565b6109376020830185610626565b6109446040830184610570565b94935050505056fe610100604052348015610010575f5ffd5b50604051611cf0380380611cf0833981810160405281019061003291906103fc565b600161005061004561033960201b60201c565b61036260201b60201c565b5f01819055505f73ffffffffffffffffffffffffffffffffffffffff168573ffffffffffffffffffffffffffffffffffffffff16036100c4576040517f08c379a00000000000000000000000000000000000000000000000000000000081526004016100bb906104cd565b60405180910390fd5b5f73ffffffffffffffffffffffffffffffffffffffff168473ffffffffffffffffffffffffffffffffffffffff1603610132576040517f08c379a000000000000000000000000000000000000000000000000000000000815260040161012990610535565b60405180910390fd5b5f73ffffffffffffffffffffffffffffffffffffffff168373ffffffffffffffffffffffffffffffffffffffff16036101a0576040517f08c379a00000000000000000000000000000000000000000000000000000000081526004016101979061059d565b60405180910390fd5b8373ffffffffffffffffffffffffffffffffffffffff168573ffffffffffffffffffffffffffffffffffffffff160361020e576040517f08c379a000000000000000000000000000000000000000000000000000000000815260040161020590610605565b60405180910390fd5b5f8211610250576040517f08c379a00000000000000000000000000000000000000000000000000000000081526004016102479061066d565b60405180910390fd5b8473ffffffffffffffffffffffffffffffffffffffff1660808173ffffffffffffffffffffffffffffffffffffffff16815250508373ffffffffffffffffffffffffffffffffffffffff1660a08173ffffffffffffffffffffffffffffffffffffffff16815250508273ffffffffffffffffffffffffffffffffffffffff1660c08173ffffffffffffffffffffffffffffffffffffffff16815250508160e08181525050804261030091906106b8565b6001819055505f60025f6101000a81548160ff0219169083600781111561032a576103296106eb565b5b02179055505050505050610718565b5f7f9b779b17422d0df92223018b32b4d1fa46e071723d6817e2486d003becc55f005f1b905090565b5f819050919050565b5f5ffd5b5f73ffffffffffffffffffffffffffffffffffffffff82169050919050565b5f6103988261036f565b9050919050565b6103a88161038e565b81146103b2575f5ffd5b50565b5f815190506103c38161039f565b92915050565b5f819050919050565b6103db816103c9565b81146103e5575f5ffd5b50565b5f815190506103f6816103d2565b92915050565b5f5f5f5f5f60a086880312156104155761041461036b565b5b5f610422888289016103b5565b9550506020610433888289016103b5565b9450506040610444888289016103b5565b9350506060610455888289016103e8565b9250506080610466888289016103e8565b9150509295509295909350565b5f82825260208201905092915050565b7f496e76616c6964206275796572000000000000000000000000000000000000005f82015250565b5f6104b7600d83610473565b91506104c282610483565b602082019050919050565b5f6020820190508181035f8301526104e4816104ab565b9050919050565b7f496e76616c69642073656c6c65720000000000000000000000000000000000005f82015250565b5f61051f600e83610473565b915061052a826104eb565b602082019050919050565b5f6020820190508181035f83015261054c81610513565b9050919050565b7f496e76616c69642061726269747261746f7200000000000000000000000000005f82015250565b5f610587601283610473565b915061059282610553565b602082019050919050565b5f6020820190508181035f8301526105b48161057b565b9050919050565b7f427579657220616e642073656c6c65722063616e6e6f742062652073616d65005f82015250565b5f6105ef601f83610473565b91506105fa826105bb565b602082019050919050565b5f6020820190508181035f83015261061c816105e3565b9050919050565b7f416d6f756e74206d757374206265203e203000000000000000000000000000005f82015250565b5f610657601283610473565b915061066282610623565b602082019050919050565b5f6020820190508181035f8301526106848161064b565b9050919050565b7f4e487b71000000000000000000000000000000000000000000000000000000005f52601160045260245ffd5b5f6106c2826103c9565b91506106cd836103c9565b92508282019050808211156106e5576106e461068b565b5b92915050565b7f4e487b71000000000000000000000000000000000000000000000000000000005f52602160045260245ffd5b60805160a05160c05160e05161153c6107b45f395f818161061301528181610dea0152610ebd01525f81816108250152610b5101525f818161030d015281816103bd01528181610412015281816106c601528181610c470152610f0501525f8181610476015281816104cb01528181610849015281816109a9015281816109cd01528181610c6d01528181610cfa0152611065015261153c5ff3fe6080604052600436106100eb575f3560e01c806385dd688d11610089578063ac307fcf11610058578063ac307fcf1461028b578063c19d93fb146102b5578063c7a25777146102df578063cf840151146102f55761012b565b806385dd688d1461020557806389e1e82a1461022f578063a5d737ac14610257578063aa8c217c146102615761012b565b80636cc6cde1116100c55780636cc6cde1146101855780636daa2d44146101af5780637150d8ae146101c557806383d22d78146101ef5761012b565b806308551a531461012f57806324600fc314610159578063613f35931461016f5761012b565b3661012b576040517f08c379a000000000000000000000000000000000000000000000000000000000815260040161012290611306565b60405180910390fd5b5f5ffd5b34801561013a575f5ffd5b5061014361030b565b6040516101509190611363565b60405180910390f35b348015610164575f5ffd5b5061016d61032f565b005b34801561017a575f5ffd5b506101836106c4565b005b348015610190575f5ffd5b50610199610823565b6040516101a69190611363565b60405180910390f35b3480156101ba575f5ffd5b506101c3610847565b005b3480156101d0575f5ffd5b506101d96109a7565b6040516101e69190611363565b60405180910390f35b3480156101fa575f5ffd5b506102036109cb565b005b348015610210575f5ffd5b50610219610b2b565b6040516102269190611363565b60405180910390f35b34801561023a575f5ffd5b50610255600480360381019061025091906113b5565b610b4f565b005b61025f610cf8565b005b34801561026c575f5ffd5b50610275610ebb565b60405161028291906113f8565b60405180910390f35b348015610296575f5ffd5b5061029f610edf565b6040516102ac9190611420565b60405180910390f35b3480156102c0575f5ffd5b506102c9610ef1565b6040516102d691906114ac565b60405180910390f35b3480156102ea575f5ffd5b506102f3610f03565b005b348015610300575f5ffd5b50610309611063565b005b7f000000000000000000000000000000000000000000000000000000000000000081565b6103376111bb565b5f60149054906101000a900460ff161561037d576040517fbaf3f0f700000000000000000000000000000000000000000000000000000000815260040160405180910390fd5b5f6006600781111561039257610391611439565b5b60025f9054906101000a900460ff1660078111156103b3576103b2611439565b5b14801561040b57507f000000000000000000000000000000000000000000000000000000000000000073ffffffffffffffffffffffffffffffffffffffff163373ffffffffffffffffffffffffffffffffffffffff16145b15610438577f000000000000000000000000000000000000000000000000000000000000000090506105df565b60078081111561044b5761044a611439565b5b60025f9054906101000a900460ff16600781111561046c5761046b611439565b5b1480156104c457507f000000000000000000000000000000000000000000000000000000000000000073ffffffffffffffffffffffffffffffffffffffff163373ffffffffffffffffffffffffffffffffffffffff16145b156104f1577f000000000000000000000000000000000000000000000000000000000000000090506105de565b6005600781111561050557610504611439565b5b60025f9054906101000a900460ff16600781111561052657610525611439565b5b14801561057e57505f5f9054906101000a900473ffffffffffffffffffffffffffffffffffffffff1673ffffffffffffffffffffffffffffffffffffffff163373ffffffffffffffffffffffffffffffffffffffff16145b156105ab575f5f9054906101000a900473ffffffffffffffffffffffffffffffffffffffff1690506105dd565b6040517fbaf3f0f700000000000000000000000000000000000000000000000000000000815260040160405180910390fd5b5b5b60015f60146101000a81548160ff0219169083151502179055505f8173ffffffffffffffffffffffffffffffffffffffff167f000000000000000000000000000000000000000000000000000000000000000060405161063e906114f2565b5f6040518083038185875af1925050503d805f8114610678576040519150601f19603f3d011682016040523d82523d5f602084013e61067d565b606091505b50509050806106b8576040517fbaf3f0f700000000000000000000000000000000000000000000000000000000815260040160405180910390fd5b50506106c26111dd565b565b7f000000000000000000000000000000000000000000000000000000000000000073ffffffffffffffffffffffffffffffffffffffff163373ffffffffffffffffffffffffffffffffffffffff1614610749576040517f85d1f72600000000000000000000000000000000000000000000000000000000815260040160405180910390fd5b6001600781111561075d5761075c611439565b5b60025f9054906101000a900460ff16600781111561077e5761077d611439565b5b146107b5576040517fbaf3f0f700000000000000000000000000000000000000000000000000000000815260040160405180910390fd5b6002805f6101000a81548160ff021916908360078111156107d9576107d8611439565b5b02179055503373ffffffffffffffffffffffffffffffffffffffff167fe8b2bddd4b7daeaba32be7d8f242b974e1dcd03366dea076f1c8c08fb8a1c9c760405160405180910390a2565b7f000000000000000000000000000000000000000000000000000000000000000081565b7f000000000000000000000000000000000000000000000000000000000000000073ffffffffffffffffffffffffffffffffffffffff163373ffffffffffffffffffffffffffffffffffffffff16146108cc576040517f86efbb5500000000000000000000000000000000000000000000000000000000815260040160405180910390fd5b600360078111156108e0576108df611439565b5b60025f9054906101000a900460ff16600781111561090157610900611439565b5b14610938576040517fbaf3f0f700000000000000000000000000000000000000000000000000000000815260040160405180910390fd5b600460025f6101000a81548160ff0219169083600781111561095d5761095c611439565b5b02179055503373ffffffffffffffffffffffffffffffffffffffff167f11a2d2ad80befd9a35511b1ee302948ff8875a2b07d978f969e93f5fa6712ea560405160405180910390a2565b7f000000000000000000000000000000000000000000000000000000000000000081565b7f000000000000000000000000000000000000000000000000000000000000000073ffffffffffffffffffffffffffffffffffffffff163373ffffffffffffffffffffffffffffffffffffffff1614610a50576040517f86efbb5500000000000000000000000000000000000000000000000000000000815260040160405180910390fd5b60036007811115610a6457610a63611439565b5b60025f9054906101000a900460ff166007811115610a8557610a84611439565b5b14610abc576040517fbaf3f0f700000000000000000000000000000000000000000000000000000000815260040160405180910390fd5b600660025f6101000a81548160ff02191690836007811115610ae157610ae0611439565b5b02179055503373ffffffffffffffffffffffffffffffffffffffff167f3bf6526b36cdcf4678108c9b66a1b7a4bb33bc49d0ace628f7ee735ccc2b8d0360405160405180910390a2565b5f5f9054906101000a900473ffffffffffffffffffffffffffffffffffffffff1681565b7f000000000000000000000000000000000000000000000000000000000000000073ffffffffffffffffffffffffffffffffffffffff163373ffffffffffffffffffffffffffffffffffffffff1614610bd4576040517f2eef310a00000000000000000000000000000000000000000000000000000000815260040160405180910390fd5b60046007811115610be857610be7611439565b5b60025f9054906101000a900460ff166007811115610c0957610c08611439565b5b14610c40576040517fbaf3f0f700000000000000000000000000000000000000000000000000000000815260040160405180910390fd5b80610c6b577f0000000000000000000000000000000000000000000000000000000000000000610c8d565b7f00000000000000000000000000000000000000000000000000000000000000005b5f5f6101000a81548173ffffffffffffffffffffffffffffffffffffffff021916908373ffffffffffffffffffffffffffffffffffffffff160217905550600560025f6101000a81548160ff02191690836007811115610cf057610cef611439565b5b021790555050565b7f000000000000000000000000000000000000000000000000000000000000000073ffffffffffffffffffffffffffffffffffffffff163373ffffffffffffffffffffffffffffffffffffffff1614610d7d576040517f86efbb5500000000000000000000000000000000000000000000000000000000815260040160405180910390fd5b5f6007811115610d9057610d8f611439565b5b60025f9054906101000a900460ff166007811115610db157610db0611439565b5b14610de8576040517fbaf3f0f700000000000000000000000000000000000000000000000000000000815260040160405180910390fd5b7f00000000000000000000000000000000000000000000000000000000000000003414610e41576040517f2c5211c600000000000000000000000000000000000000000000000000000000815260040160405180910390fd5b600160025f6101000a81548160ff02191690836007811115610e6657610e65611439565b5b02179055503373ffffffffffffffffffffffffffffffffffffffff167f511c3b325f63024e6754176648b89f4bab878b1712366d9bf3729c501dcbad7934604051610eb191906113f8565b60405180910390a2565b7f000000000000000000000000000000000000000000000000000000000000000081565b5f60149054906101000a900460ff1681565b60025f9054906101000a900460ff1681565b7f000000000000000000000000000000000000000000000000000000000000000073ffffffffffffffffffffffffffffffffffffffff163373ffffffffffffffffffffffffffffffffffffffff1614610f88576040517f85d1f72600000000000000000000000000000000000000000000000000000000815260040160405180910390fd5b60026007811115610f9c57610f9b611439565b5b60025f9054906101000a900460ff166007811115610fbd57610fbc611439565b5b14610ff4576040517fbaf3f0f700000000000000000000000000000000000000000000000000000000815260040160405180910390fd5b600360025f6101000a81548160ff0219169083600781111561101957611018611439565b5b02179055503373ffffffffffffffffffffffffffffffffffffffff167ff04a1f236f845c044c77f6e91793ed8787cafff53f0d8604a32abf85dece407360405160405180910390a2565b7f000000000000000000000000000000000000000000000000000000000000000073ffffffffffffffffffffffffffffffffffffffff163373ffffffffffffffffffffffffffffffffffffffff16146110e8576040517f86efbb5500000000000000000000000000000000000000000000000000000000815260040160405180910390fd5b600160078111156110fc576110fb611439565b5b60025f9054906101000a900460ff16600781111561111d5761111c611439565b5b14611154576040517fbaf3f0f700000000000000000000000000000000000000000000000000000000815260040160405180910390fd5b600154421161118f576040517fe15ff9ea00000000000000000000000000000000000000000000000000000000815260040160405180910390fd5b600760025f6101000a81548160ff021916908360078111156111b4576111b3611439565b5b0217905550565b6111c36111f7565b60026111d56111d0611238565b611261565b5f0181905550565b60016111ef6111ea611238565b611261565b5f0181905550565b6111ff61126a565b15611236576040517f3ee5aeb500000000000000000000000000000000000000000000000000000000815260040160405180910390fd5b565b5f7f9b779b17422d0df92223018b32b4d1fa46e071723d6817e2486d003becc55f005f1b905090565b5f819050919050565b5f600261127d611278611238565b611261565b5f015414905090565b5f82825260208201905092915050565b7f5573652066756e64457363726f772066756e6374696f6e20746f2066756e64205f8201527f74686520657363726f77206f6e6c792100000000000000000000000000000000602082015250565b5f6112f0603083611286565b91506112fb82611296565b604082019050919050565b5f6020820190508181035f83015261131d816112e4565b9050919050565b5f73ffffffffffffffffffffffffffffffffffffffff82169050919050565b5f61134d82611324565b9050919050565b61135d81611343565b82525050565b5f6020820190506113765f830184611354565b92915050565b5f5ffd5b5f8115159050919050565b61139481611380565b811461139e575f5ffd5b50565b5f813590506113af8161138b565b92915050565b5f602082840312156113ca576113c961137c565b5b5f6113d7848285016113a1565b91505092915050565b5f819050919050565b6113f2816113e0565b82525050565b5f60208201905061140b5f8301846113e9565b92915050565b61141a81611380565b82525050565b5f6020820190506114335f830184611411565b92915050565b7f4e487b71000000000000000000000000000000000000000000000000000000005f52602160045260245ffd5b6008811061147757611476611439565b5b50565b5f81905061148782611466565b919050565b5f6114968261147a565b9050919050565b6114a68161148c565b82525050565b5f6020820190506114bf5f83018461149d565b92915050565b5f81905092915050565b50565b5f6114dd5f836114c5565b91506114e8826114cf565b5f82019050919050565b5f6114fc826114d2565b915081905091905056fea2646970667358221220fd347aeb84c1996d1328518d5dd7b48fa76f26337e1f80e15deab62e0ba881e464736f6c63430008210033a2646970667358221220ea143c02ed97243a5472e4430b232e76a5302f6c15db2bb98287d4be339813a264736f6c63430008210033","linkReferences":{}},"methodIdentifiers":{"arbitrator()":"6cc6cde1","createEscrow(address,address,uint256,uint256)":"ccbae5f6","escrows(uint256)":"012f52ee","escrowsLength()":"ea7c32d5"},"id":22}